:100000000EC01EC01CC01BC01AC019C018C017C02B
:1000100016C015C014C013C012C011C010C01124E6
:100020001FBECFE5D2E0DEBFCDBF20E0A0E6B0E04E
:1000300001C01D92A236B207E1F719D057C0E0CF38
:100040001F920F920FB60F9211248F939F9380915E
:100050006000909161000196909361008093600030
:100060009F918F910F900FBE0F901F901895B99A86
:1000700088B3866088BB85B7826085BF8BB7806494
:100080008BBF80B7826680BF1CBC8FE98DBD8EBDE3
:100090002FEF83E294EF215080409040E1F700C0C1
:1000A000000078948DB5209160003091610090E05F
:1000B00001962817390734F480916000909161000F
:1000C0008EBDF0CF8DB5209160003091610090E041
:1000D00001968217930734F7109261001092600026
:1000E00080916000909161008EBDDCCFF894FFCFCD
:00000001FF
